{
  "contractName": "Insurance",
  "abi": [
    {
      "inputs": [],
      "stateMutability": "nonpayable",
      "type": "constructor"
    },
    {
      "anonymous": false,
      "inputs": [
        {
          "indexed": false,
          "internalType": "uint256",
          "name": "claimId",
          "type": "uint256"
        }
      ],
      "name": "ClaimApproved",
      "type": "event"
    },
    {
      "anonymous": false,
      "inputs": [
        {
          "indexed": false,
          "internalType": "uint256",
          "name": "claimId",
          "type": "uint256"
        },
        {
          "indexed": false,
          "internalType": "uint256",
          "name": "policyId",
          "type": "uint256"
        },
        {
          "indexed": false,
          "internalType": "address",
          "name": "policyHolder",
          "type": "address"
        }
      ],
      "name": "ClaimSubmitted",
      "type": "event"
    },
    {
      "anonymous": false,
      "inputs": [
        {
          "indexed": false,
          "internalType": "uint256",
          "name": "claimId",
          "type": "uint256"
        },
        {
          "indexed": false,
          "internalType": "address",
          "name": "policyHolder",
          "type": "address"
        }
      ],
      "name": "PayoutProcessed",
      "type": "event"
    },
    {
      "anonymous": false,
      "inputs": [
        {
          "indexed": false,
          "internalType": "uint256",
          "name": "policyId",
          "type": "uint256"
        },
        {
          "indexed": false,
          "internalType": "address",
          "name": "policyHolder",
          "type": "address"
        }
      ],
      "name": "PolicyCreated",
      "type": "event"
    },
    {
      "inputs": [],
      "name": "admin",
      "outputs": [
        {
          "internalType": "address",
          "name": "",
          "type": "address"
        }
      ],
      "stateMutability": "view",
      "type": "function",
      "constant": true
    },
    {
      "inputs": [],
      "name": "claimCount",
      "outputs": [
        {
          "internalType": "uint256",
          "name": "",
          "type": "uint256"
        }
      ],
      "stateMutability": "view",
      "type": "function",
      "constant": true
    },
    {
      "inputs": [
        {
          "internalType": "uint256",
          "name": "",
          "type": "uint256"
        }
      ],
      "name": "claims",
      "outputs": [
        {
          "internalType": "uint256",
          "name": "id",
          "type": "uint256"
        },
        {
          "internalType": "address",
          "name": "policyHolder",
          "type": "address"
        },
        {
          "internalType": "uint256",
          "name": "policyId",
          "type": "uint256"
        },
        {
          "internalType": "uint256",
          "name": "claimAmount",
          "type": "uint256"
        },
        {
          "internalType": "bool",
          "name": "approved",
          "type": "bool"
        },
        {
          "internalType": "bool",
          "name": "paid",
          "type": "bool"
        }
      ],
      "stateMutability": "view",
      "type": "function",
      "constant": true
    },
    {
      "inputs": [
        {
          "internalType": "uint256",
          "name": "",
          "type": "uint256"
        }
      ],
      "name": "policies",
      "outputs": [
        {
          "internalType": "uint256",
          "name": "id",
          "type": "uint256"
        },
        {
          "internalType": "address",
          "name": "policyHolder",
          "type": "address"
        },
        {
          "internalType": "uint256",
          "name": "premium",
          "type": "uint256"
        },
        {
          "internalType": "uint256",
          "name": "coverageAmount",
          "type": "uint256"
        },
        {
          "internalType": "bool",
          "name": "isActive",
          "type": "bool"
        }
      ],
      "stateMutability": "view",
      "type": "function",
      "constant": true
    },
    {
      "inputs": [],
      "name": "policyCount",
      "outputs": [
        {
          "internalType": "uint256",
          "name": "",
          "type": "uint256"
        }
      ],
      "stateMutability": "view",
      "type": "function",
      "constant": true
    },
    {
      "stateMutability": "payable",
      "type": "receive",
      "payable": true
    },
    {
      "inputs": [
        {
          "internalType": "uint256",
          "name": "premium",
          "type": "uint256"
        },
        {
          "internalType": "uint256",
          "name": "coverageAmount",
          "type": "uint256"
        }
      ],
      "name": "createPolicy",
      "outputs": [],
      "stateMutability": "payable",
      "type": "function",
      "payable": true
    },
    {
      "inputs": [
        {
          "internalType": "uint256",
          "name": "policyId",
          "type": "uint256"
        },
        {
          "internalType": "uint256",
          "name": "claimAmount",
          "type": "uint256"
        }
      ],
      "name": "submitClaim",
      "outputs": [],
      "stateMutability": "nonpayable",
      "type": "function"
    },
    {
      "inputs": [
        {
          "internalType": "uint256",
          "name": "claimId",
          "type": "uint256"
        }
      ],
      "name": "approveClaim",
      "outputs": [],
      "stateMutability": "nonpayable",
      "type": "function"
    },
    {
      "inputs": [
        {
          "internalType": "uint256",
          "name": "claimId",
          "type": "uint256"
        }
      ],
      "name": "processPayout",
      "outputs": [],
      "stateMutability": "nonpayable",
      "type": "function"
    }
  ],
  "bytecode": "0x608060405234801561001057600080fd5b50336000806101000a81548173ffffffffffffffffffffffffffffffffffffffff021916908373ffffffffffffffffffffffffffffffffffffffff1602179055506110b2806100606000396000f3fe60806040526004361061008a5760003560e01c8063a888c2cd11610059578063a888c2cd1461013c578063c7e2f28e1461017e578063d3e894831461019a578063de54d429146101db578063f851a4401461020657610091565b806346e301351461009657806389ee68bf146100bf5780638da4d3c9146100e8578063916750631461011357610091565b3661009157005b600080fd5b3480156100a257600080fd5b506100bd60048036038101906100b89190610a6c565b610231565b005b3480156100cb57600080fd5b506100e660048036038101906100e19190610a6c565b610380565b005b3480156100f457600080fd5b506100fd61056e565b60405161010a9190610e65565b60405180910390f35b34801561011f57600080fd5b5061013a60048036038101906101359190610a95565b610574565b005b34801561014857600080fd5b50610163600480360381019061015e9190610a6c565b6107dc565b60405161017596959493929190610efc565b60405180910390f35b61019860048036038101906101939190610a95565b610852565b005b3480156101a657600080fd5b506101c160048036038101906101bc9190610a6c565b6109ca565b6040516101d2959493929190610ea9565b60405180910390f35b3480156101e757600080fd5b506101f0610a2d565b6040516101fd9190610e65565b60405180910390f35b34801561021257600080fd5b5061021b610a33565b6040516102289190610d4a565b60405180910390f35b60008054906101000a900473ffffffffffffffffffffffffffffffffffffffff1673ffffffffffffffffffffffffffffffffffffffff163373ffffffffffffffffffffffffffffffffffffffff16146102bf576040517f08c379a00000000000000000000000000000000000000000000000000000000081526004016102b690610e05565b60405180910390fd5b60006004600083815260200190815260200160002090508060040160009054906101000a900460ff1615610328576040517f08c379a000000000000000000000000000000000000000000000000000000000815260040161031f90610de5565b60405180910390fd5b60018160040160006101000a81548160ff0219169083151502179055507fd2d0ed0cccc8615643ade1eff3929a29ed8df75ebca85a3996e311c9b69e2289826040516103749190610e65565b60405180910390a15050565b60006004600083815260200190815260200160002090508060040160009054906101000a900460ff166103e8576040517f08c379a00000000000000000000000000000000000000000000000000000000081526004016103df90610d65565b60405180910390fd5b8060040160019054906101000a900460ff161561043a576040517f08c379a000000000000000000000000000000000000000000000000000000000815260040161043190610e45565b60405180910390fd5b8060030154471015610481576040517f08c379a000000000000000000000000000000000000000000000000000000000815260040161047890610d85565b60405180910390fd5b60018160040160016101000a81548160ff0219169083151502179055508060010160009054906101000a900473ffffffffffffffffffffffffffffffffffffffff1673ffffffffffffffffffffffffffffffffffffffff166108fc82600301549081150290604051600060405180830381858888f1935050505015801561050c573d6000803e3d6000fd5b507f774f3a80f7a9554b61ea1df8d52b0c853a8e297351f8d193fbc8279d506a99e2828260010160009054906101000a900473ffffffffffffffffffffffffffffffffffffffff16604051610562929190610e80565b60405180910390a15050565b60025481565b6003600083815260200190815260200160002060040160009054906101000a900460ff166105d7576040517f08c379a00000000000000000000000000000000000000000000000000000000081526004016105ce90610dc5565b60405180910390fd5b3373ffffffffffffffffffffffffffffffffffffffff166003600084815260200190815260200160002060010160009054906101000a900473ffffffffffffffffffffffffffffffffffffffff1673ffffffffffffffffffffffffffffffffffffffff161461067b576040517f08c379a000000000000000000000000000000000000000000000000000000000815260040161067290610da5565b60405180910390fd5b6002600081548092919061068e90610fed565b91905055506040518060c0016040528060025481526020013373ffffffffffffffffffffffffffffffffffffffff168152602001838152602001828152602001600015158152602001600015158152506004600060025481526020019081526020016000206000820151816000015560208201518160010160006101000a81548173ffffffffffffffffffffffffffffffffffffffff021916908373ffffffffffffffffffffffffffffffffffffffff160217905550604082015181600201556060820151816003015560808201518160040160006101000a81548160ff02191690831515021790555060a08201518160040160016101000a81548160ff0219169083151502179055509050507f9fe11e531030a058803617055e27f9f4768236e4322e13b9c4c09f4338e23a6860025483336040516107d093929190610f5d565b60405180910390a15050565b60046020528060005260406000206000915090508060000154908060010160009054906101000a900473ffffffffffffffffffffffffffffffffffffffff16908060020154908060030154908060040160009054906101000a900460ff16908060040160019054906101000a900460ff16905086565b813414610894576040517f08c379a000000000000000000000000000000000000000000000000000000000815260040161088b90610e25565b60405180910390fd5b600160008154809291906108a790610fed565b91905055506040518060a0016040528060015481526020013373ffffffffffffffffffffffffffffffffffffffff168152602001838152602001828152602001600115158152506003600060015481526020019081526020016000206000820151816000015560208201518160010160006101000a81548173ffffffffffffffffffffffffffffffffffffffff021916908373ffffffffffffffffffffffffffffffffffffffff160217905550604082015181600201556060820151816003015560808201518160040160006101000a81548160ff0219169083151502179055509050507f692975d6d42aec50e0f6ff672acde3bf011e71355ed86dd49de0a1f533950cba600154336040516109be929190610e80565b60405180910390a15050565b60036020528060005260406000206000915090508060000154908060010160009054906101000a900473ffffffffffffffffffffffffffffffffffffffff16908060020154908060030154908060040160009054906101000a900460ff16905085565b60015481565b60008054906101000a900473ffffffffffffffffffffffffffffffffffffffff1681565b600081359050610a6681611065565b92915050565b600060208284031215610a7e57600080fd5b6000610a8c84828501610a57565b91505092915050565b60008060408385031215610aa857600080fd5b6000610ab685828601610a57565b9250506020610ac785828601610a57565b9150509250929050565b610ada81610fa5565b82525050565b610ae981610fb7565b82525050565b6000610afc601583610f94565b91507f436c61696d206973206e6f7420617070726f76656400000000000000000000006000830152602082019050919050565b6000610b3c602883610f94565b91507f496e73756666696369656e7420636f6e74726163742062616c616e636520666f60008301527f72207061796f75740000000000000000000000000000000000000000000000006020830152604082019050919050565b6000610ba2602383610f94565b91507f4f6e6c7920706f6c696379686f6c6465722063616e207375626d697420636c6160008301527f696d7300000000000000000000000000000000000000000000000000000000006020830152604082019050919050565b6000610c08601583610f94565b91507f506f6c696379206d7573742062652061637469766500000000000000000000006000830152602082019050919050565b6000610c48601683610f94565b91507f436c61696d20616c726561647920617070726f766564000000000000000000006000830152602082019050919050565b6000610c88601d83610f94565b91507f4f6e6c792061646d696e2063616e20617070726f766520636c61696d730000006000830152602082019050919050565b6000610cc8601d83610f94565b91507f5072656d69756d206d757374206265207061696420696e2045746865720000006000830152602082019050919050565b6000610d08601883610f94565b91507f5061796f757420616c72656164792070726f63657373656400000000000000006000830152602082019050919050565b610d4481610fe3565b82525050565b6000602082019050610d5f6000830184610ad1565b92915050565b60006020820190508181036000830152610d7e81610aef565b9050919050565b60006020820190508181036000830152610d9e81610b2f565b9050919050565b60006020820190508181036000830152610dbe81610b95565b9050919050565b60006020820190508181036000830152610dde81610bfb565b9050919050565b60006020820190508181036000830152610dfe81610c3b565b9050919050565b60006020820190508181036000830152610e1e81610c7b565b9050919050565b60006020820190508181036000830152610e3e81610cbb565b9050919050565b60006020820190508181036000830152610e5e81610cfb565b9050919050565b6000602082019050610e7a6000830184610d3b565b92915050565b6000604082019050610e956000830185610d3b565b610ea26020830184610ad1565b9392505050565b600060a082019050610ebe6000830188610d3b565b610ecb6020830187610ad1565b610ed86040830186610d3b565b610ee56060830185610d3b565b610ef26080830184610ae0565b9695505050505050565b600060c082019050610f116000830189610d3b565b610f1e6020830188610ad1565b610f2b6040830187610d3b565b610f386060830186610d3b565b610f456080830185610ae0565b610f5260a0830184610ae0565b979650505050505050565b6000606082019050610f726000830186610d3b565b610f7f6020830185610d3b565b610f8c6040830184610ad1565b949350505050565b600082825260208201905092915050565b6000610fb082610fc3565b9050919050565b60008115159050919050565b600073ffffffffffffffffffffffffffffffffffffffff82169050919050565b6000819050919050565b6000610ff882610fe3565b91507fffffffffffffffffffffffffffffffffffffffffffffffffffffffffffffffff82141561102b5761102a611036565b5b600182019050919050565b7f4e487b7100000000000000000000000000000000000000000000000000000000600052601160045260246000fd5b61106e81610fe3565b811461107957600080fd5b5056fea264697066735822122020d3a3417a1b07594f3e4551a2c8952da6408ab15212a8a2a81676fcb58dd0b964736f6c63430008000033",
  "immutableReferences": {},
  "source": "// SPDX-License-Identifier: MIT\npragma solidity ^0.8.0;\n\ncontract Insurance {\n\n    struct Policy {\n        uint id;\n        address policyHolder;\n        uint premium;\n        uint coverageAmount;\n        bool isActive;\n    }\n\n    struct Claim {\n        uint id;\n        address policyHolder;\n        uint policyId;\n        uint claimAmount;\n        bool approved;\n        bool paid;\n    }\n\n    address public admin;\n    uint public policyCount;\n    uint public claimCount;\n\n    mapping(uint => Policy) public policies;\n    mapping(uint => Claim) public claims;\n\n    event PolicyCreated(uint policyId, address policyHolder);\n    event ClaimSubmitted(uint claimId, uint policyId, address policyHolder);\n    event ClaimApproved(uint claimId);\n    event PayoutProcessed(uint claimId, address policyHolder);\n\n    constructor() {\n        admin = msg.sender; // Set the deployer as the admin\n    }\n\n    // Allow the contract to receive Ether\n    receive() external payable {}\n\n    function createPolicy(uint premium, uint coverageAmount) public payable {\n        require(msg.value == premium, \"Premium must be paid in Ether\");\n\n        policyCount++;\n        policies[policyCount] = Policy(policyCount, msg.sender, premium, coverageAmount, true);\n        emit PolicyCreated(policyCount, msg.sender);\n    }\n\n    function submitClaim(uint policyId, uint claimAmount) public {\n        require(policies[policyId].isActive, \"Policy must be active\");\n        require(policies[policyId].policyHolder == msg.sender, \"Only policyholder can submit claims\");\n\n        claimCount++;\n        claims[claimCount] = Claim(claimCount, msg.sender, policyId, claimAmount, false, false);\n        emit ClaimSubmitted(claimCount, policyId, msg.sender);\n    }\n\n    function approveClaim(uint claimId) public {\n        require(msg.sender == admin, \"Only admin can approve claims\");\n        Claim storage claim = claims[claimId];\n        require(!claim.approved, \"Claim already approved\");\n\n        claim.approved = true;\n        emit ClaimApproved(claimId);\n    }\n\n    function processPayout(uint claimId) public {\n        Claim storage claim = claims[claimId];\n        require(claim.approved, \"Claim is not approved\");\n        require(!claim.paid, \"Payout already processed\");\n        require(address(this).balance >= claim.claimAmount, \"Insufficient contract balance for payout\");\n\n        claim.paid = true;\n        payable(claim.policyHolder).transfer(claim.claimAmount);\n        emit PayoutProcessed(claimId, claim.policyHolder);\n    }\n}\n",
  "sourcePath": "/Users/bhaskardwivedi/insurance-claims-dapp/contracts/Insurance.sol",
  "compiler": {
    "name": "solc",
    "version": "0.8.0+commit.c7dfd78e.Emscripten.clang"
  },
  "schemaVersion": "3.4.16",
  "updatedAt": "2024-10-16T21:58:13.027Z",
  "networkType": "ethereum",
  "devdoc": {
    "kind": "dev",
    "methods": {},
    "version": 1
  },
  "userdoc": {
    "kind": "user",
    "methods": {},
    "version": 1
  }
}